{
  "abi": [
    {
      "inputs": [],
      "name": "getNumber",
      "outputs": [
        {
          "internalType": "uint256",
          "name": "",
          "type": "uint256"
        }
      ],
      "stateMutability": "view",
      "type": "function"
    },
    {
      "inputs": [
        {
          "internalType": "uint256",
          "name": "v",
          "type": "uint256"
        }
      ],
      "name": "saveNumber",
      "outputs": [],
      "stateMutability": "nonpayable",
      "type": "function"
    }
  ],
  "address": "0x263DbEB51Eb84b009bAbCF974E11d39927A2b5eb",
  "args": [],
  "solcInputHash": "0x7da00a9dc878cf662b7f34c9ccda5f8a1d28874c3a1bc3cf107ea7e3b5c3c3b2",
  "bytecode": "0x608060405234801561001057600080fd5b5060c88061001f6000396000f3fe6080604052348015600f57600080fd5b506004361060325760003560e01c8063f2c9ecd8146037578063f33ded7b146053575b600080fd5b603d607e565b6040518082815260200191505060405180910390f35b607c60048036036020811015606757600080fd5b81019080803590602001909291905050506088565b005b6000600154905090565b806001819055505056fea264697066735822122061303ac8a08ca80dec7dd98470400c5f71b05d38c0e5ae6b5624479aba72917a64736f6c63430006050033",
  "devdoc": {
    "methods": {}
  },
  "userdoc": {
    "methods": {}
  },
  "storageLayout": {
    "storage": [
      {
        "astId": 8521,
        "contract": "src/diamon_test/TestFacet.sol:TestFacet",
        "label": "_name",
        "offset": 0,
        "slot": "0",
        "type": "t_string_storage"
      },
      {
        "astId": 8523,
        "contract": "src/diamon_test/TestFacet.sol:TestFacet",
        "label": "_value",
        "offset": 0,
        "slot": "1",
        "type": "t_uint256"
      }
    ],
    "types": {
      "t_string_storage": {
        "encoding": "bytes",
        "label": "string",
        "numberOfBytes": "32"
      },
      "t_uint256": {
        "encoding": "inplace",
        "label": "uint256",
        "numberOfBytes": "32"
      }
    }
  },
  "gasEstimates": {
    "creation": {
      "codeDepositCost": "40000",
      "executionCost": "93",
      "totalCost": "40093"
    },
    "external": {
      "getNumber()": "991",
      "saveNumber(uint256)": "20242"
    }
  }
}