{
  "abi": [
    {
      "anonymous": false,
      "inputs": [
        {
          "indexed": false,
          "internalType": "uint256",
          "name": "_index",
          "type": "uint256"
        }
      ],
      "name": "FinishedProofs",
      "type": "event"
    },
    {
      "anonymous": false,
      "inputs": [
        {
          "indexed": false,
          "internalType": "uint256",
          "name": "_index",
          "type": "uint256"
        }
      ],
      "name": "FinishedReplay",
      "type": "event"
    },
    {
      "anonymous": false,
      "inputs": [
        {
          "indexed": false,
          "internalType": "uint256",
          "name": "_index",
          "type": "uint256"
        },
        {
          "indexed": false,
          "internalType": "bytes32",
          "name": "_initialHash",
          "type": "bytes32"
        }
      ],
      "name": "MemoryCreated",
      "type": "event"
    },
    {
      "anonymous": false,
      "inputs": [
        {
          "indexed": false,
          "internalType": "uint256",
          "name": "_index",
          "type": "uint256"
        },
        {
          "indexed": false,
          "internalType": "bool",
          "name": "_wasRead",
          "type": "bool"
        },
        {
          "indexed": false,
          "internalType": "uint64",
          "name": "_position",
          "type": "uint64"
        },
        {
          "indexed": false,
          "internalType": "bytes8",
          "name": "_value",
          "type": "bytes8"
        }
      ],
      "name": "ValueProved",
      "type": "event"
    },
    {
      "anonymous": false,
      "inputs": [
        {
          "indexed": false,
          "internalType": "uint256",
          "name": "_index",
          "type": "uint256"
        },
        {
          "indexed": false,
          "internalType": "uint64",
          "name": "_position",
          "type": "uint64"
        },
        {
          "indexed": false,
          "internalType": "bytes8",
          "name": "_value",
          "type": "bytes8"
        }
      ],
      "name": "ValueRead",
      "type": "event"
    },
    {
      "anonymous": false,
      "inputs": [
        {
          "indexed": false,
          "internalType": "uint256",
          "name": "_index",
          "type": "uint256"
        },
        {
          "indexed": false,
          "internalType": "uint64",
          "name": "_position",
          "type": "uint64"
        },
        {
          "indexed": false,
          "internalType": "bytes8",
          "name": "_value",
          "type": "bytes8"
        }
      ],
      "name": "ValueWritten",
      "type": "event"
    },
    {
      "constant": true,
      "inputs": [],
      "name": "currentIndex",
      "outputs": [
        {
          "internalType": "uint256",
          "name": "",
          "type": "uint256"
        }
      ],
      "payable": false,
      "stateMutability": "view",
      "type": "function"
    },
    {
      "constant": true,
      "inputs": [
        {
          "internalType": "uint256",
          "name": "_index",
          "type": "uint256"
        }
      ],
      "name": "getNonce",
      "outputs": [
        {
          "internalType": "uint256",
          "name": "currentNonce",
          "type": "uint256"
        }
      ],
      "payable": false,
      "stateMutability": "view",
      "type": "function"
    },
    {
      "constant": true,
      "inputs": [
        {
          "internalType": "uint256",
          "name": "_index",
          "type": "uint256"
        }
      ],
      "name": "isActive",
      "outputs": [
        {
          "internalType": "bool",
          "name": "",
          "type": "bool"
        }
      ],
      "payable": false,
      "stateMutability": "view",
      "type": "function"
    },
    {
      "constant": false,
      "inputs": [
        {
          "internalType": "address",
          "name": "_provider",
          "type": "address"
        },
        {
          "internalType": "address",
          "name": "_client",
          "type": "address"
        },
        {
          "internalType": "bytes32",
          "name": "_initialHash",
          "type": "bytes32"
        }
      ],
      "name": "instantiate",
      "outputs": [
        {
          "internalType": "uint256",
          "name": "",
          "type": "uint256"
        }
      ],
      "payable": false,
      "stateMutability": "nonpayable",
      "type": "function"
    },
    {
      "constant": false,
      "inputs": [
        {
          "internalType": "uint256",
          "name": "_index",
          "type": "uint256"
        },
        {
          "internalType": "uint64",
          "name": "_position",
          "type": "uint64"
        },
        {
          "internalType": "bytes8",
          "name": "_value",
          "type": "bytes8"
        },
        {
          "internalType": "bytes32[]",
          "name": "proof",
          "type": "bytes32[]"
        }
      ],
      "name": "proveRead",
      "outputs": [],
      "payable": false,
      "stateMutability": "nonpayable",
      "type": "function"
    },
    {
      "constant": false,
      "inputs": [
        {
          "internalType": "uint256",
          "name": "_index",
          "type": "uint256"
        },
        {
          "internalType": "uint64",
          "name": "_position",
          "type": "uint64"
        },
        {
          "internalType": "bytes8",
          "name": "_oldValue",
          "type": "bytes8"
        },
        {
          "internalType": "bytes8",
          "name": "_newValue",
          "type": "bytes8"
        },
        {
          "internalType": "bytes32[]",
          "name": "proof",
          "type": "bytes32[]"
        }
      ],
      "name": "proveWrite",
      "outputs": [],
      "payable": false,
      "stateMutability": "nonpayable",
      "type": "function"
    },
    {
      "constant": false,
      "inputs": [
        {
          "internalType": "uint256",
          "name": "_index",
          "type": "uint256"
        }
      ],
      "name": "finishProofPhase",
      "outputs": [],
      "payable": false,
      "stateMutability": "nonpayable",
      "type": "function"
    },
    {
      "constant": false,
      "inputs": [
        {
          "internalType": "uint256",
          "name": "_index",
          "type": "uint256"
        },
        {
          "internalType": "uint64",
          "name": "_position",
          "type": "uint64"
        }
      ],
      "name": "read",
      "outputs": [
        {
          "internalType": "bytes8",
          "name": "",
          "type": "bytes8"
        }
      ],
      "payable": false,
      "stateMutability": "nonpayable",
      "type": "function"
    },
    {
      "constant": false,
      "inputs": [
        {
          "internalType": "uint256",
          "name": "_index",
          "type": "uint256"
        },
        {
          "internalType": "uint64",
          "name": "_position",
          "type": "uint64"
        },
        {
          "internalType": "bytes8",
          "name": "_value",
          "type": "bytes8"
        }
      ],
      "name": "write",
      "outputs": [],
      "payable": false,
      "stateMutability": "nonpayable",
      "type": "function"
    },
    {
      "constant": false,
      "inputs": [
        {
          "internalType": "uint256",
          "name": "_index",
          "type": "uint256"
        }
      ],
      "name": "finishReplayPhase",
      "outputs": [],
      "payable": false,
      "stateMutability": "nonpayable",
      "type": "function"
    },
    {
      "constant": true,
      "inputs": [
        {
          "internalType": "uint256",
          "name": "_index",
          "type": "uint256"
        },
        {
          "internalType": "address",
          "name": "_user",
          "type": "address"
        }
      ],
      "name": "isConcerned",
      "outputs": [
        {
          "internalType": "bool",
          "name": "",
          "type": "bool"
        }
      ],
      "payable": false,
      "stateMutability": "view",
      "type": "function"
    },
    {
      "constant": true,
      "inputs": [
        {
          "internalType": "uint256",
          "name": "_index",
          "type": "uint256"
        },
        {
          "internalType": "address",
          "name": "",
          "type": "address"
        }
      ],
      "name": "getState",
      "outputs": [
        {
          "internalType": "address",
          "name": "_provider",
          "type": "address"
        },
        {
          "internalType": "address",
          "name": "_client",
          "type": "address"
        },
        {
          "internalType": "bytes32",
          "name": "_initialHash",
          "type": "bytes32"
        },
        {
          "internalType": "bytes32",
          "name": "_newHash",
          "type": "bytes32"
        },
        {
          "internalType": "uint256",
          "name": "_numberSubmitted",
          "type": "uint256"
        },
        {
          "internalType": "bytes32",
          "name": "_currentState",
          "type": "bytes32"
        }
      ],
      "payable": false,
      "stateMutability": "view",
      "type": "function"
    },
    {
      "constant": true,
      "inputs": [
        {
          "internalType": "uint256",
          "name": "",
          "type": "uint256"
        },
        {
          "internalType": "address",
          "name": "",
          "type": "address"
        }
      ],
      "name": "getSubInstances",
      "outputs": [
        {
          "internalType": "address[]",
          "name": "",
          "type": "address[]"
        },
        {
          "internalType": "uint256[]",
          "name": "",
          "type": "uint256[]"
        }
      ],
      "payable": false,
      "stateMutability": "view",
      "type": "function"
    },
    {
      "constant": true,
      "inputs": [
        {
          "internalType": "uint256",
          "name": "_index",
          "type": "uint256"
        }
      ],
      "name": "provider",
      "outputs": [
        {
          "internalType": "address",
          "name": "",
          "type": "address"
        }
      ],
      "payable": false,
      "stateMutability": "view",
      "type": "function"
    },
    {
      "constant": true,
      "inputs": [
        {
          "internalType": "uint256",
          "name": "_index",
          "type": "uint256"
        }
      ],
      "name": "client",
      "outputs": [
        {
          "internalType": "address",
          "name": "",
          "type": "address"
        }
      ],
      "payable": false,
      "stateMutability": "view",
      "type": "function"
    },
    {
      "constant": true,
      "inputs": [
        {
          "internalType": "uint256",
          "name": "_index",
          "type": "uint256"
        }
      ],
      "name": "initialHash",
      "outputs": [
        {
          "internalType": "bytes32",
          "name": "",
          "type": "bytes32"
        }
      ],
      "payable": false,
      "stateMutability": "view",
      "type": "function"
    },
    {
      "constant": true,
      "inputs": [
        {
          "internalType": "uint256",
          "name": "_index",
          "type": "uint256"
        }
      ],
      "name": "newHash",
      "outputs": [
        {
          "internalType": "bytes32",
          "name": "",
          "type": "bytes32"
        }
      ],
      "payable": false,
      "stateMutability": "view",
      "type": "function"
    },
    {
      "constant": true,
      "inputs": [
        {
          "internalType": "uint256",
          "name": "_index",
          "type": "uint256"
        }
      ],
      "name": "getCurrentState",
      "outputs": [
        {
          "internalType": "bytes32",
          "name": "",
          "type": "bytes32"
        }
      ],
      "payable": false,
      "stateMutability": "view",
      "type": "function"
    },
    {
      "constant": true,
      "inputs": [
        {
          "internalType": "uint256",
          "name": "_roundDuration",
          "type": "uint256"
        },
        {
          "internalType": "uint256",
          "name": "_timeToStartMachine",
          "type": "uint256"
        }
      ],
      "name": "getMaxInstanceDuration",
      "outputs": [
        {
          "internalType": "uint256",
          "name": "",
          "type": "uint256"
        }
      ],
      "payable": false,
      "stateMutability": "view",
      "type": "function"
    },
    {
      "constant": true,
      "inputs": [
        {
          "internalType": "uint256",
          "name": "_index",
          "type": "uint256"
        }
      ],
      "name": "stateIsWaitingProofs",
      "outputs": [
        {
          "internalType": "bool",
          "name": "",
          "type": "bool"
        }
      ],
      "payable": false,
      "stateMutability": "view",
      "type": "function"
    },
    {
      "constant": true,
      "inputs": [
        {
          "internalType": "uint256",
          "name": "_index",
          "type": "uint256"
        }
      ],
      "name": "stateIsWaitingReplay",
      "outputs": [
        {
          "internalType": "bool",
          "name": "",
          "type": "bool"
        }
      ],
      "payable": false,
      "stateMutability": "view",
      "type": "function"
    },
    {
      "constant": true,
      "inputs": [
        {
          "internalType": "uint256",
          "name": "_index",
          "type": "uint256"
        }
      ],
      "name": "stateIsFinishedReplay",
      "outputs": [
        {
          "internalType": "bool",
          "name": "",
          "type": "bool"
        }
      ],
      "payable": false,
      "stateMutability": "view",
      "type": "function"
    }
  ],
  "address": "0xAF7FA03a72DA0dd657d3D3fFCf55F6090C6b960A",
  "args": [],
  "solcInputHash": "0x7da00a9dc878cf662b7f34c9ccda5f8a1d28874c3a1bc3cf107ea7e3b5c3c3b2",
  "bytecode": "0x60806040526000805534801561001457600080fd5b50613a5a806100246000396000f3fe608060405234801561001057600080fd5b50600436106101425760003560e01c80637d036b0d116100b8578063906458401161007c57806390645840146106f757806396f429ba14610739578063a9c7a1e61461077f578063ac448b161461089f578063ade5f4171461099a578063c526656c146109dc57610142565b80637d036b0d14610547578063812e32191461057557806382afd23b146105e357806384dfd44d146106295780638a05e4781461067557610142565b80633ed5d4561161010a5780633ed5d456146102ba57806343d4b78b146102e857806346336cd31461032e57806352cc70c6146103ba5780635748c1301461042857806373df16121461046a57610142565b806301ff62ab146101475780631c5d3c60146101ad57806326987b60146101f3578063281ca73e146102115780633d46b81914610278575b600080fd5b6101936004803603604081101561015d57600080fd5b8101908080359060200190929190803573ffffffffffffffffffffffffffffffffffffffff169060200190929190505050610ac7565b604051808215151515815260200191505060405180910390f35b6101d9600480360360208110156101c357600080fd5b8101908080359060200190929190505050610ba2565b604051808215151515815260200191505060405180910390f35b6101fb610c61565b6040518082815260200191505060405180910390f35b6102766004803603606081101561022757600080fd5b8101908080359060200190929190803567ffffffffffffffff169060200190929190803577ffffffffffffffffffffffffffffffffffffffffffffffff19169060200190929190505050610c67565b005b6102a46004803603602081101561028e57600080fd5b81019080803590602001909291905050506111df565b6040518082815260200191505060405180910390f35b6102e6600480360360208110156102d057600080fd5b81019080803590602001909291905050506112f0565b005b610314600480360360208110156102fe57600080fd5b8101908080359060200190929190505050611618565b604051808215151515815260200191505060405180910390f35b61036e6004803603604081101561034457600080fd5b8101908080359060200190929190803567ffffffffffffffff1690602001909291905050506116d7565b604051808277ffffffffffffffffffffffffffffffffffffffffffffffff191677ffffffffffffffffffffffffffffffffffffffffffffffff1916815260200191505060405180910390f35b6103e6600480360360208110156103d057600080fd5b8101908080359060200190929190505050611be9565b604051808273ffffffffffffffffffffffffffffffffffffffff1673ffffffffffffffffffffffffffffffffffffffff16815260200191505060405180910390f35b6104546004803603602081101561043e57600080fd5b8101908080359060200190929190505050611ca2565b6040518082815260200191505060405180910390f35b6104b66004803603604081101561048057600080fd5b8101908080359060200190929190803573ffffffffffffffffffffffffffffffffffffffff169060200190929190505050611ed4565b604051808773ffffffffffffffffffffffffffffffffffffffff1673ffffffffffffffffffffffffffffffffffffffff1681526020018673ffffffffffffffffffffffffffffffffffffffff1673ffffffffffffffffffffffffffffffffffffffff168152602001858152602001848152602001838152602001828152602001965050505050505060405180910390f35b6105736004803603602081101561055d57600080fd5b81019080803590602001909291905050506121a4565b005b6105a16004803603602081101561058b57600080fd5b810190808035906020019092919050505061241f565b604051808273ffffffffffffffffffffffffffffffffffffffff1673ffffffffffffffffffffffffffffffffffffffff16815260200191505060405180910390f35b61060f600480360360208110156105f957600080fd5b81019080803590602001909291905050506124d8565b604051808215151515815260200191505060405180910390f35b61065f6004803603604081101561063f57600080fd5b810190808035906020019092919080359060200190929190505050612502565b6040518082815260200191505060405180910390f35b6106e16004803603606081101561068b57600080fd5b81019080803573ffffffffffffffffffffffffffffffffffffffff169060200190929190803573ffffffffffffffffffffffffffffffffffffffff16906020019092919080359060200190929190505050612543565b6040518082815260200191505060405180910390f35b6107236004803603602081101561070d57600080fd5b8101908080359060200190929190505050612731565b6040518082815260200191505060405180910390f35b6107656004803603602081101561074f57600080fd5b81019080803590602001909291905050506127ca565b604051808215151515815260200191505060405180910390f35b61089d600480360360a081101561079557600080fd5b8101908080359060200190929190803567ffffffffffffffff169060200190929190803577ffffffffffffffffffffffffffffffffffffffffffffffff19169060200190929190803577ffffffffffffffffffffffffffffffffffffffffffffffff191690602001909291908035906020019064010000000081111561081a57600080fd5b82018360208201111561082c57600080fd5b8035906020019184602083028401116401000000008311171561084e57600080fd5b919080806020026020016040519081016040528093929190818152602001838360200280828437600081840152601f19601f820116905080830192505050505050509192919290505050612888565b005b610998600480360360808110156108b557600080fd5b8101908080359060200190929190803567ffffffffffffffff169060200190929190803577ffffffffffffffffffffffffffffffffffffffffffffffff191690602001909291908035906020019064010000000081111561091557600080fd5b82018360208201111561092757600080fd5b8035906020019184602083028401116401000000008311171561094957600080fd5b919080806020026020016040519081016040528093929190818152602001838360200280828437600081840152601f19601f820116905080830192505050505050509192919290505050612ccd565b005b6109c6600480360360208110156109b057600080fd5b8101908080359060200190929190505050613109565b6040518082815260200191505060405180910390f35b610a28600480360360408110156109f257600080fd5b8101908080359060200190929190803573ffffffffffffffffffffffffffffffffffffffff1690602001909291905050506131a2565b604051808060200180602001838103835285818151815260200191508051906020019060200280838360005b83811015610a6f578082015181840152602081019050610a54565b50505050905001838103825284818151815260200191508051906020019060200280838360005b83811015610ab1578082015181840152602081019050610a96565b5050505090500194505050505060405180910390f35b60008173ffffffffffffffffffffffffffffffffffffffff166003600085815260200190815260200160002060000160009054906101000a900473ffffffffffffffffffffffffffffffffffffffff1673ffffffffffffffffffffffffffffffffffffffff161480610b9a57508173ffffffffffffffffffffffffffffffffffffffff166003600085815260200190815260200160002060010160009054906101000a900473ffffffffffffffffffffffffffffffffffffffff1673ffffffffffffffffffffffffffffffffffffffff16145b905092915050565b6000818060005411610c1c576040517f08c379a00000000000000000000000000000000000000000000000000000000081526004018080602001828103825260168152602001807f496e646578206e6f7420696e7374616e7469617465640000000000000000000081525060200191505060405180910390fd5b60006002811115610c2957fe5b6003600085815260200190815260200160002060060160009054906101000a900460ff166002811115610c5857fe5b14915050919050565b60005481565b828060005411610cdf576040517f08c379a00000000000000000000000000000000000000000000000000000000081526004018080602001828103825260168152602001807f496e646578206e6f7420696e7374616e7469617465640000000000000000000081525060200191505060405180910390fd5b8360026000828152602001908152602001600020600081548092919060010191905055503273ffffffffffffffffffffffffffffffffffffffff166003600087815260200190815260200160002060010160009054906101000a900473ffffffffffffffffffffffffffffffffffffffff1673ffffffffffffffffffffffffffffffffffffffff1614610dbd576040517f08c379a000000000000000000000000000000000000000000000000000000000815260040180806020018281038252602e81526020018061393b602e913960400191505060405180910390fd5b60016002811115610dca57fe5b6003600087815260200190815260200160002060060160009054906101000a900460ff166002811115610df957fe5b14610e4f576040517f08c379a000000000000000000000000000000000000000000000000000000000815260040180806020018281038252602f8152602001806139d2602f913960400191505060405180910390fd5b60006007851667ffffffffffffffff1614610ed2576040517f08c379a00000000000000000000000000000000000000000000000000000000081526004018080602001828103825260178152602001807f506f736974696f6e206973206e6f7420616c69676e656400000000000000000081525060200191505060405180910390fd5b6000600360008781526020019081526020016000206005015490506000600360008881526020019081526020016000206004018281548110610f1057fe5b9060005260206000200190508060000160009054906101000a900460ff1615610f84576040517f08c379a000000000000000000000000000000000000000000000000000000000815260040180806020018281038252602181526020018061391a6021913960400191505060405180910390fd5b8567ffffffffffffffff168160000160019054906101000a900467ffffffffffffffff1667ffffffffffffffff1614611008576040517f08c379a00000000000000000000000000000000000000000000000000000000081526004018080602001828103825260288152602001806138756028913960400191505060405180910390fd5b8477ffffffffffffffffffffffffffffffffffffffffffffffff19168160000160099054906101000a900460c01b77ffffffffffffffffffffffffffffffffffffffffffffffff1916146110a7576040517f08c379a00000000000000000000000000000000000000000000000000000000081526004018080602001828103825260258152602001806138166025913960400191505060405180910390fd5b6003600088815260200190815260200160002060040182815481106110c857fe5b90600052602060002001600080820160006101000a81549060ff02191690556000820160016101000a81549067ffffffffffffffff02191690556000820160096101000a81549067ffffffffffffffff0219169055505060036000888152602001908152602001600020600501600081548092919060010191905055507f1a89c2c5f3636ceb6d880c0d97e9bb38407469e452f527cf78b9553d04b55dc4878787604051808481526020018367ffffffffffffffff1667ffffffffffffffff1681526020018277ffffffffffffffffffffffffffffffffffffffffffffffff191677ffffffffffffffffffffffffffffffffffffffffffffffff19168152602001935050505060405180910390a150505050505050565b6000818060005411611259576040517f08c379a00000000000000000000000000000000000000000000000000000000081526004018080602001828103825260168152602001807f496e646578206e6f7420696e7374616e7469617465640000000000000000000081525060200191505060405180910390fd5b611262816124d8565b6112d4576040517f08c379a000000000000000000000000000000000000000000000000000000000815260040180806020018281038252600e8152602001807f496e64657820696e61637469766500000000000000000000000000000000000081525060200191505060405180910390fd5b6002600084815260200190815260200160002054915050919050565b808060005411611368576040517f08c379a00000000000000000000000000000000000000000000000000000000081526004018080602001828103825260168152602001807f496e646578206e6f7420696e7374616e7469617465640000000000000000000081525060200191505060405180910390fd5b8160026000828152602001908152602001600020600081548092919060010191905055503273ffffffffffffffffffffffffffffffffffffffff166003600085815260200190815260200160002060010160009054906101000a900473ffffffffffffffffffffffffffffffffffffffff1673ffffffffffffffffffffffffffffffffffffffff1614611446576040517f08c379a000000000000000000000000000000000000000000000000000000000815260040180806020018281038252602e81526020018061393b602e913960400191505060405180910390fd5b6001600281111561145357fe5b6003600085815260200190815260200160002060060160009054906101000a900460ff16600281111561148257fe5b146114d8576040517f08c379a000000000000000000000000000000000000000000000000000000000815260040180806020018281038252603b815260200180613969603b913960400191505060405180910390fd5b600360008481526020019081526020016000206004018054905060036000858152602001908152602001600020600501541461155f576040517f08c379a0000000000000000000000000000000000000000000000000000000008152600401808060200182810382526025815260200180613a016025913960400191505060405180910390fd5b60036000848152602001908152602001600020600401600061158191906136b9565b600360008481526020019081526020016000206005016000905560026003600085815260200190815260200160002060060160006101000a81548160ff021916908360028111156115ce57fe5b02179055506115dc8361321e565b7feac25e5c6b8f91fcaaec2cbaed6317b8403630d1f793fc32c10fa4731a464e87836040518082815260200191505060405180910390a1505050565b6000818060005411611692576040517f08c379a00000000000000000000000000000000000000000000000000000000081526004018080602001828103825260168152602001807f496e646578206e6f7420696e7374616e7469617465640000000000000000000081525060200191505060405180910390fd5b6001600281111561169f57fe5b6003600085815260200190815260200160002060060160009054906101000a900460ff1660028111156116ce57fe5b14915050919050565b6000828060005411611751576040517f08c379a00000000000000000000000000000000000000000000000000000000081526004018080602001828103825260168152602001807f496e646578206e6f7420696e7374616e7469617465640000000000000000000081525060200191505060405180910390fd5b8360026000828152602001908152602001600020600081548092919060010191905055503273ffffffffffffffffffffffffffffffffffffffff166003600087815260200190815260200160002060010160009054906101000a900473ffffffffffffffffffffffffffffffffffffffff1673ffffffffffffffffffffffffffffffffffffffff161461182f576040517f08c379a000000000000000000000000000000000000000000000000000000000815260040180806020018281038252602e81526020018061393b602e913960400191505060405180910390fd5b6001600281111561183c57fe5b6003600087815260200190815260200160002060060160009054906101000a900460ff16600281111561186b57fe5b146118c1576040517f08c379a000000000000000000000000000000000000000000000000000000000815260040180806020018281038252602e8152602001806139a4602e913960400191505060405180910390fd5b60006007851667ffffffffffffffff1614611944576040517f08c379a00000000000000000000000000000000000000000000000000000000081526004018080602001828103825260178152602001807f506f736974696f6e206973206e6f7420616c69676e656400000000000000000081525060200191505060405180910390fd5b600060036000878152602001908152602001600020600501549050600060036000888152602001908152602001600020600401828154811061198257fe5b9060005260206000200190508060000160009054906101000a900460ff16611a12576040517f08c379a00000000000000000000000000000000000000000000000000000000081526004018080602001828103825260208152602001807f506f696e74496e486973746f727920776173206e6f742072656164207479706581525060200191505060405180910390fd5b8567ffffffffffffffff168160000160019054906101000a900467ffffffffffffffff1667ffffffffffffffff1614611a96576040517f08c379a00000000000000000000000000000000000000000000000000000000081526004018080602001828103825260288152602001806138756028913960400191505060405180910390fd5b60008160000160099054906101000a900460c01b9050600360008981526020019081526020016000206004018381548110611acd57fe5b90600052602060002001600080820160006101000a81549060ff02191690556000820160016101000a81549067ffffffffffffffff02191690556000820160096101000a81549067ffffffffffffffff0219169055505060036000898152602001908152602001600020600501600081548092919060010191905055507f0cac98cb64b0a437ae48678c1884bcbf0e7c702bf74c7e16c6986454e8990d62888883604051808481526020018367ffffffffffffffff1667ffffffffffffffff1681526020018277ffffffffffffffffffffffffffffffffffffffffffffffff191677ffffffffffffffffffffffffffffffffffffffffffffffff19168152602001935050505060405180910390a1809550505050505092915050565b6000818060005411611c63576040517f08c379a00000000000000000000000000000000000000000000000000000000081526004018080602001828103825260168152602001807f496e646578206e6f7420696e7374616e7469617465640000000000000000000081525060200191505060405180910390fd5b6003600084815260200190815260200160002060000160009054906101000a900473ffffffffffffffffffffffffffffffffffffffff16915050919050565b6000818060005411611d1c576040517f08c379a00000000000000000000000000000000000000000000000000000000081526004018080602001828103825260168152602001807f496e646578206e6f7420696e7374616e7469617465640000000000000000000081525060200191505060405180910390fd5b60006002811115611d2957fe5b6003600085815260200190815260200160002060060160009054906101000a900460ff166002811115611d5857fe5b1415611d86577f57616974696e6750726f6f6673000000000000000000000000000000000000009150611ece565b60016002811115611d9357fe5b6003600085815260200190815260200160002060060160009054906101000a900460ff166002811115611dc257fe5b1415611df0577f57616974696e675265706c6179000000000000000000000000000000000000009150611ece565b600280811115611dfc57fe5b6003600085815260200190815260200160002060060160009054906101000a900460ff166002811115611e2b57fe5b1415611e59577f46696e69736865645265706c61790000000000000000000000000000000000009150611ece565b6000611ecd576040517f08c379a00000000000000000000000000000000000000000000000000000000081526004018080602001828103825260128152602001807f556e7265636f676e697a6564207374617465000000000000000000000000000081525060200191505060405180910390fd5b5b50919050565b600080600080600080878060005411611f55576040517f08c379a00000000000000000000000000000000000000000000000000000000081526004018080602001828103825260168152602001807f496e646578206e6f7420696e7374616e7469617465640000000000000000000081525060200191505060405180910390fd5b611f5d6136da565b600360008b81526020019081526020016000206040518060e00160405290816000820160009054906101000a900473ffffffffffffffffffffffffffffffffffffffff1673ffffffffffffffffffffffffffffffffffffffff1673ffffffffffffffffffffffffffffffffffffffff1681526020016001820160009054906101000a900473ffffffffffffffffffffffffffffffffffffffff1673ffffffffffffffffffffffffffffffffffffffff1673ffffffffffffffffffffffffffffffffffffffff168152602001600282015481526020016003820154815260200160048201805480602002602001604051908101604052809291908181526020016000905b82821015612128578382906000526020600020016040518060600160405290816000820160009054906101000a900460ff161515151581526020016000820160019054906101000a900467ffffffffffffffff1667ffffffffffffffff1667ffffffffffffffff1681526020016000820160099054906101000a900460c01b77ffffffffffffffffffffffffffffffffffffffffffffffff191677ffffffffffffffffffffffffffffffffffffffffffffffff19168152505081526020019060010190612060565b505050508152602001600582015481526020016006820160009054906101000a900460ff16600281111561215857fe5b600281111561216357fe5b815250509050806000015181602001518260400151836060015184608001515161218c8f611ca2565b97509750975097509750975050509295509295509295565b80806000541161221c576040517f08c379a00000000000000000000000000000000000000000000000000000000081526004018080602001828103825260168152602001807f496e646578206e6f7420696e7374616e7469617465640000000000000000000081525060200191505060405180910390fd5b6003600083815260200190815260200160002060000160009054906101000a900473ffffffffffffffffffffffffffffffffffffffff168073ffffffffffffffffffffffffffffffffffffffff163373ffffffffffffffffffffffffffffffffffffffff16146122f4576040517f08c379a00000000000000000000000000000000000000000000000000000000081526004018080602001828103825260188152602001807f43616e6e6f742062652063616c6c65642062792075736572000000000000000081525060200191505060405180910390fd5b8260026000828152602001908152602001600020600081548092919060010191905055506000600281111561232557fe5b6003600086815260200190815260200160002060060160009054906101000a900460ff16600281111561235457fe5b146123aa576040517f08c379a000000000000000000000000000000000000000000000000000000000815260040180806020018281038252603a81526020018061383b603a913960400191505060405180910390fd5b60016003600086815260200190815260200160002060060160006101000a81548160ff021916908360028111156123dd57fe5b02179055507f0b1229d47b7ccd1dde07b4148a6c9336fd9d5fb57cca980e709576e96ae600ed846040518082815260200191505060405180910390a150505050565b6000818060005411612499576040517f08c379a00000000000000000000000000000000000000000000000000000000081526004018080602001828103825260168152602001807f496e646578206e6f7420696e7374616e7469617465640000000000000000000081525060200191505060405180910390fd5b6003600084815260200190815260200160002060010160009054906101000a900473ffffffffffffffffffffffffffffffffffffffff16915050919050565b60006001600083815260200190815260200160002060009054906101000a900460ff169050919050565b60008061251160008585613266565b9050600061252160018686613266565b9050600061253160008787613266565b90508082840101935050505092915050565b60008273ffffffffffffffffffffffffffffffffffffffff168473ffffffffffffffffffffffffffffffffffffffff1614156125ca576040517f08c379a00000000000000000000000000000000000000000000000000000000081526004018080602001828103825260228152602001806138f86022913960400191505060405180910390fd5b600060036000805481526020019081526020016000209050848160000160006101000a81548173ffffffffffffffffffffffffffffffffffffffff021916908373ffffffffffffffffffffffffffffffffffffffff160217905550838160010160006101000a81548173ffffffffffffffffffffffffffffffffffffffff021916908373ffffffffffffffffffffffffffffffffffffffff1602179055508281600201819055508281600301819055506000816005018190555060008160060160006101000a81548160ff021916908360028111156126a557fe5b02179055507f9d7a7145d65060279d0bc06f7f03a791000bbaa9b8a8e75c3c10e2d24348791b60005484604051808381526020018281526020019250505060405180910390a160018060008054815260200190815260200160002060006101000a81548160ff021916908315150217905550600080815480929190600101919050559150509392505050565b60008180600054116127ab576040517f08c379a00000000000000000000000000000000000000000000000000000000081526004018080602001828103825260168152602001807f496e646578206e6f7420696e7374616e7469617465640000000000000000000081525060200191505060405180910390fd5b6003600084815260200190815260200160002060030154915050919050565b6000818060005411612844576040517f08c379a00000000000000000000000000000000000000000000000000000000081526004018080602001828103825260168152602001807f496e646578206e6f7420696e7374616e7469617465640000000000000000000081525060200191505060405180910390fd5b60028081111561285057fe5b6003600085815260200190815260200160002060060160009054906101000a900460ff16600281111561287f57fe5b14915050919050565b848060005411612900576040517f08c379a00000000000000000000000000000000000000000000000000000000081526004018080602001828103825260168152602001807f496e646578206e6f7420696e7374616e7469617465640000000000000000000081525060200191505060405180910390fd5b6003600087815260200190815260200160002060000160009054906101000a900473ffffffffffffffffffffffffffffffffffffffff168073ffffffffffffffffffffffffffffffffffffffff163373ffffffffffffffffffffffffffffffffffffffff16146129d8576040517f08c379a00000000000000000000000000000000000000000000000000000000081526004018080602001828103825260188152602001807f43616e6e6f742062652063616c6c65642062792075736572000000000000000081525060200191505060405180910390fd5b86600260008281526020019081526020016000206000815480929190600101919050555060006002811115612a0957fe5b600360008a815260200190815260200160002060060160009054906101000a900460ff166002811115612a3857fe5b14612a8e576040517f08c379a00000000000000000000000000000000000000000000000000000000081526004018080602001828103825260348152602001806137be6034913960400191505060405180910390fd5b6003600089815260200190815260200160002060030154612ab088888761335c565b14612b06576040517f08c379a00000000000000000000000000000000000000000000000000000000081526004018080602001828103825260248152602001806137f26024913960400191505060405180910390fd5b612b1187868661335c565b600360008a8152602001908152602001600020600301819055506003600089815260200190815260200160002060040160405180606001604052806000151581526020018967ffffffffffffffff1681526020018777ffffffffffffffffffffffffffffffffffffffffffffffff191681525090806001815401808255809150509060018203906000526020600020016000909192909190915060008201518160000160006101000a81548160ff02191690831515021790555060208201518160000160016101000a81548167ffffffffffffffff021916908367ffffffffffffffff16021790555060408201518160000160096101000a81548167ffffffffffffffff021916908360c01c02179055505050507f912a59309f29407977c171115122b2599e36be67312d6366767f7dbeb3d831ce886000898860405180858152602001841515151581526020018367ffffffffffffffff1667ffffffffffffffff1681526020018277ffffffffffffffffffffffffffffffffffffffffffffffff191677ffffffffffffffffffffffffffffffffffffffffffffffff1916815260200194505050505060405180910390a15050505050505050565b838060005411612d45576040517f08c379a00000000000000000000000000000000000000000000000000000000081526004018080602001828103825260168152602001807f496e646578206e6f7420696e7374616e7469617465640000000000000000000081525060200191505060405180910390fd5b6003600086815260200190815260200160002060000160009054906101000a900473ffffffffffffffffffffffffffffffffffffffff168073ffffffffffffffffffffffffffffffffffffffff163373ffffffffffffffffffffffffffffffffffffffff1614612e1d576040517f08c379a00000000000000000000000000000000000000000000000000000000081526004018080602001828103825260188152602001807f43616e6e6f742062652063616c6c65642062792075736572000000000000000081525060200191505060405180910390fd5b85600260008281526020019081526020016000206000815480929190600101919050555060006002811115612e4e57fe5b6003600089815260200190815260200160002060060160009054906101000a900460ff166002811115612e7d57fe5b14612ed3576040517f08c379a00000000000000000000000000000000000000000000000000000000081526004018080602001828103825260338152602001806138c56033913960400191505060405180910390fd5b6003600088815260200190815260200160002060030154612ef587878761335c565b14612f68576040517f08c379a000000000000000000000000000000000000000000000000000000000815260040180806020018281038252601b8152602001807f4d65726b6c652070726f6f6620646f6573206e6f74206d61746368000000000081525060200191505060405180910390fd5b6003600088815260200190815260200160002060040160405180606001604052806001151581526020018867ffffffffffffffff1681526020018777ffffffffffffffffffffffffffffffffffffffffffffffff191681525090806001815401808255809150509060018203906000526020600020016000909192909190915060008201518160000160006101000a81548160ff02191690831515021790555060208201518160000160016101000a81548167ffffffffffffffff021916908367ffffffffffffffff16021790555060408201518160000160096101000a81548167ffffffffffffffff021916908360c01c02179055505050507f912a59309f29407977c171115122b2599e36be67312d6366767f7dbeb3d831ce876001888860405180858152602001841515151581526020018367ffffffffffffffff1667ffffffffffffffff1681526020018277ffffffffffffffffffffffffffffffffffffffffffffffff191677ffffffffffffffffffffffffffffffffffffffffffffffff1916815260200194505050505060405180910390a150505050505050565b6000818060005411613183576040517f08c379a00000000000000000000000000000000000000000000000000000000081526004018080602001828103825260168152602001807f496e646578206e6f7420696e7374616e7469617465640000000000000000000081525060200191505060405180910390fd5b6003600084815260200190815260200160002060020154915050919050565b606080606060006040519080825280602002602001820160405280156131d75781602001602082028038833980820191505090505b5090506060600060405190808252806020026020018201604052801561320c5781602001602082028038833980820191505090505b50905081819350935050509250929050565b60006001600083815260200190815260200160002060006101000a81548160ff0219169083151502179055506000600260008381526020019081526020016000208190555050565b600080600281111561327457fe5b84600281111561328057fe5b1415613293578260020282019050613355565b600160028111156132a057fe5b8460028111156132ac57fe5b14156132ba57829050613355565b6002808111156132c657fe5b8460028111156132d257fe5b14156132e057829050613355565b6000613354576040517f08c379a00000000000000000000000000000000000000000000000000000000081526004018080602001828103825260128152602001807f556e7265636f676e697a6564207374617465000000000000000000000000000081525060200191505060405180910390fd5b5b9392505050565b60008083604051602001808277ffffffffffffffffffffffffffffffffffffffffffffffff191677ffffffffffffffffffffffffffffffffffffffffffffffff191681526008019150506040516020818303038152906040528051906020012090506133cb85600383866133d5565b9150509392505050565b600060038467ffffffffffffffff161015613458576040517f08c379a00000000000000000000000000000000000000000000000000000000081526004018080602001828103825260178152602001807f4d757374206265206174206c65617374206120776f726400000000000000000081525060200191505060405180910390fd5b60408467ffffffffffffffff1611156134bc576040517f08c379a000000000000000000000000000000000000000000000000000000000815260040180806020018281038252602881526020018061389d6028913960400191505060405180910390fd5b60008467ffffffffffffffff16600267ffffffffffffffff160a9050600086600183031667ffffffffffffffff161461355d576040517f08c379a00000000000000000000000000000000000000000000000000000000081526004018080602001828103825260178152602001807f506f736974696f6e206973206e6f7420616c69676e656400000000000000000081525060200191505060405180910390fd5b8460400367ffffffffffffffff168351146135e0576040517f08c379a000000000000000000000000000000000000000000000000000000000815260040180806020018281038252601b8152602001807f50726f6f66206c656e67746820646f6573206e6f74206d61746368000000000081525060200191505060405180910390fd5b60008090505b83518110156136ac576000818367ffffffffffffffff16901b881667ffffffffffffffff16141561365a578484828151811061361e57fe5b6020026020010151604051602001808381526020018281526020019250505060405160208183030381529060405280519060200120945061369f565b83818151811061366657fe5b60200260200101518560405160200180838152602001828152602001925050506040516020818303038152906040528051906020012094505b80806001019150506135e6565b5083915050949350505050565b50805460008255906000526020600020908101906136d79190613754565b50565b6040518060e00160405280600073ffffffffffffffffffffffffffffffffffffffff168152602001600073ffffffffffffffffffffffffffffffffffffffff168152602001600080191681526020016000801916815260200160608152602001600081526020016000600281111561374e57fe5b81525090565b6137ba91905b808211156137b657600080820160006101000a81549060ff02191690556000820160016101000a81549067ffffffffffffffff02191690556000820160096101000a81549067ffffffffffffffff02191690555060010161375a565b5090565b9056fe43757272656e745374617465206973206e6f742057616974696e6750726f6f66732c2063616e6e6f742070726f766557726974654d65726b6c652070726f6f66206f6620777269746520646f6573206e6f74206d61746368506f696e74496e486973746f727927732076616c756520646f6573206e6f74206d6174636843757272656e745374617465206973206e6f742057616974696e6750726f6f66732c2063616e6e6f742066696e69736850726f6f665068617365506f696e74496e486973746f7279277320706f736974696f6e20646f6573206e6f74206d6174636843616e6e6f7420626520626967676572207468616e20746865206d616368696e6520697473656c6643757272656e745374617465206973206e6f742057616974696e6750726f6f66732c2063616e6e6f742070726f76655265616450726f766964657220616e6420636c69656e74206e65656420746f20646966666572506f696e74496e486973746f727920776173206e6f7420777269746520747970655472616e73616374696f6e2068617320746f206265206f726967696e617465642062792074686520636c69656e7443757272656e745374617465206973206e6f742057616974696e675265706c61792c2063616e6e6f742066696e6973685265706c6179506861736543757272656e745374617465206973206e6f742057616974696e675265706c61792c2063616e6e6f74207265616443757272656e745374617465206973206e6f742057616974696e675265706c61792c2063616e6e6f74207772697465486973746f727920706f696e74657220646f6573206e6f74206d61746368206c656e677468a265627a7a7231582045fddaa7e9e9d60fc060f220f73f9799d784d21c74dc7131cb783a2822fb5be064736f6c63430005100032"
}