{
  "address": "0x3AB3844d5D6614febBe19D59244A815cfF691A17",
  "abi": [
    {
      "inputs": [
        {
          "internalType": "string",
          "name": "name",
          "type": "string"
        }
      ],
      "name": "hello",
      "outputs": [
        {
          "internalType": "string",
          "name": "",
          "type": "string"
        }
      ],
      "stateMutability": "view",
      "type": "function"
    }
  ],
  "transactionHash": "0xe4c6d123394891ebff8bba4e0564cfe3353b3348cdc7e0d3db23386843796699",
  "args": [],
  "solcInputHash": "f9070d25-4509-4712-b2a5-92f19b8f749e",
  "bytecode": "0x608060405234801561001057600080fd5b506101b3806100206000396000f3fe608060405234801561001057600080fd5b506004361061002b5760003560e01c8063a777d0dc14610030575b600080fd5b6100a76004803603602081101561004657600080fd5b810190808035906020019064010000000081111561006357600080fd5b82018360208201111561007557600080fd5b8035906020019184600183028401116401000000008311171561009757600080fd5b9091929391929390505050610122565b6040518080602001828103825283818151815260200191508051906020019080838360005b838110156100e75780820151818401526020810190506100cc565b50505050905090810190601f1680156101145780820380516001836020036101000a031916815260200191505b509250505060405180910390f35b6060828260405160200180807f68656c6c6f203a20000000000000000000000000000000000000000000000000815250600801838380828437808301925050509250505060405160208183030381529060405290509291505056fea26469706673582212208f2a7bc28d5531362d6e98430d7904d59cefc2ea1947a1e1e4c21a36e1da290864736f6c63430006050033",
  "devdoc": {
    "methods": {}
  },
  "userdoc": {
    "methods": {}
  },
  "storageLayout": {
    "storage": [],
    "types": null
  },
  "gasEstimates": {
    "creation": {
      "codeDepositCost": "87000",
      "executionCost": "135",
      "totalCost": "87135"
    },
    "external": {
      "hello(string)": "infinite"
    }
  }
}